:10009A003F5B4F666D7D077F6F777C395E797100B4
:0B00B600EF1FAC0670011E4C70F6221C
:10000300E4F50975900FE590640F606F7FE87E0358
:100013001200B6E590640F6062AF90EF24F56010B4
:1000230024FE601114601324077012E4F508800D98
:10003300750801800875080280037508037590F040
:10004300AF90EF2450600C24E0600C24F0600C248B
:1000530070800E7404800674088002740C2508F501
:1000630008C3E509648094B25011E59064F0600B15
:0B0073007FE87E031200B6050980E65E
:01007E00225F
:10007F00120003AF08EF3395E0FE749A2FF58274E8
:0B008F00003EF583E493F4F58080E56B
:030000000200AA51
:0C00AA00787FE4F6D8FD75810902007F24
:00000001FF
