:10006C003F065B4F666D7D077F6F777C395E7971DC
:07008800AE071FEE70FA2223
:10000300E4FDEDB40800504B900012F82828730269
:10001300002A02002E02003602003E0200400200C7
:100023004402004C02003EC2A28002D2A2C2A3C27A
:10003300A48020C2A2D2A3C2A480188010C2A2802E
:1000430002D2A2C2A3D2A4800AC2A28002D2A2D2A6
:10005300A3D2A4ED90006D93F5807F10120088E485
:08006300F5800DED6408709AB0
:01006B002272
:05008F0012000380FBDC
:0300000002007C7F
:0C007C00787FE4F6D8FD75810702008F44
:00000001FF
